:020000020000FC
:040000000C9422003A
:100040000C943B0008E00EBF0FEF0FEF0AB900E081
:100050000BB908E104B904E005B905E005BD01E00C
:1000600000936E0032D0789440E020E080E090E091
:100070001A990CC0FDCF78942C3019F16A37B1F081
:10008000743FC1F023956395739508951A9B01C041
:10009000FDCF403009F039F42C99EACF22276627AA
:1000A00041E02B9AE5CF40E07727E2CF66272C9BF3
:1000B0002C9A08957727403009F008952B982C98B2
:1000C00008952227403021F0089524D080E008953B
:1000D000803019F481E00CD00895913009F421F0BA
:1000E000880F87FD91E004C0869580FD90E000C0F8
:1000F00011D080FD5A9A81FD5B9A82FD5C9A83FD46
:100100005D9A84FD5E9A85FD5F9A86FD289A87FD3B
:0E011000299A08952898299800E00BB90895BF
:00000001FF
