:020000020000FC
:040000000C9422003A
:100040000C943A0008E00EBF0FEF0FEF0AB900E082
:100050000BB908E004B904E005B905E005BD01E00D
:1000600000936E001CD0789440E020E050E01A9994
:1000700005C0FDCF78940FC0239508951A9B01C049
:10008000FDCF00E0401709F019F441E02B9AEFCFC3
:1000900040E02B98ECCF2227413021F0089500E07A
:1000A0000BB90895503021F404E051E00BB90895E4
:1000B000583019F0563024F47CF051E000E0F8CFCD
:1000C00000E00BB95395289B02C0289902C0289ADA
:1000D00008952898299A089553950BB1000F0BB9EC
:0200E000089581
:00000001FF
